:020000040800F2
:1000000040050020CD0000086D02000891010008A5
:1000100000000000000000000000000000000000E0
:10002000000000000000000000000000D1020008F5
:1000300000000000000000006F020008D30200086A
:10004000DF00000800000000DF000008DF000008FB
:10005000DF000008DF000008DF000008DF00000804
:1000600000000000DF000008DF0000085D0100085C
:10007000DF000008DF000008DF00000800000000CB
:10008000DF000008DF000008DF000008DF000008D4
:10009000DF000008DF000008DF000008DF000008C4
:1000A000DF000008DF000008DF000008DF000008B4
:1000B000DF000008DF0000080348854600F014F860
:1000C00000480047710300084005002004488047AD
:1000D00004480047FEE7FEE7FEE7FEE7FEE7FEE72F
:1000E000D5020008B9000008064C0125064E05E0BF
:1000F000E36807CC2B430C3C98471034B442F7D349
:10010000FFF7DEFF000900081009000830B50B46B4
:10011000014600202022012409E00D46D5409D42E1
:1001200005D31D469540491B254695404019154667
:10013000521E002DF1DC30BDD2B201E00270401C35
:10014000491EFBD270470022F6E710B513460A4657
:1001500004461946FFF7F0FF204610BD10B50B48C6
:100160000168890110D501214A06804B00241C70CA
:100170000B0643604260C84379490A6802400A603E
:1001800079490A6802400A6010BDC046000002407A
:10019000FEE7F8B500260B681C46F4403AD001246F
:1001A000B440234034D000961C465C434D6826463C
:1001B0006E43032767430268BA4332430260FE433B
:1001C0006A1E012A05D88A68624387683740174348
:1001D00087600A696243C76837401743C760022DCA
:1001E000009E15D14D69FF2B08D8644365430F224B
:1001F0006243036A93432B43036209E01A0A5243A2
:10020000524355430F235343426A9A432A4342625F
:10021000761CC0E74A68521E012A05D8C9685943AE
:1002200042689A430A434260F8BD000081B0054924
:100230000A6802430A60096801400091009801B011
:100240007047C0463410024081B007490A680092E6
:10025000009A401C002804D00A68D203D20F801AEA
:10026000F8E701B07047C04610E000E07047704703
:1002700010B5144CA068382101401348082920D03B
:10028000102919D1E16803220A401049032A00D03D
:100290000846022A00D00146E0684004400E484368
:1002A000E1684906490F491CFFF730FFE168490F33
:1002B000491CFFF72BFF10BD20688004410F034845
:1002C000C84010BD0010024000127A000024F40063
:1002D000704770470120C006014908607047C0465A
:1002E00008ED00E0B0B504460025A8B20D2809D2FB
:1002F000214600F009F800F01DF86420FFF7A4FF84
:100300006D1CF2E7B0BD00000C2810D81822424343
:10031000074880180022182A09D00B4693401B0278
:1003200001D53C2300E01F238354521CF3E77047A0
:10033000000000200A4841680A4A0A402721C900F3
:1003400051184160016801221143016006480168AB
:1003500011430160054801780029FCD17047C0466F
:10036000800002400000FFFF002C01403801002007
:1003700098B0D44D286C012318432864286C184089
:10038000119011981807E96B0143E963E96B01408B
:1003900011911199CC490A68022422430526B243DF
:1003A0000A6009681A0229680E92114329601093A5
:1003B0009A0229681142FCD00992E968C34A0A40AE
:1003C000C3495118E960C3494A1C29680592114381
:1003D0002960E9680143E9601098410628680842ED
:1003E000FCD00491A868BC490840A860A8680B9498
:1003F0002043B043A860A868382101401029FAD1F1
:10040000072006900003A9688143A960B348B44956
:10041000416000278760066001680422114307924B
:100420000160686D0C2188436865169715971497CD
:100430001397FC4D1046A847202034460646A8478F
:100440002946109D2846884720070A908662344630
:1004500008961595129768030F901190F54811AE04
:100460003146F54A90470D971597149713951295B5
:1004700011940A983146F04A9047EB49886B28431B
:100480008863886B0E46284011901198EB480168EC
:10049000E64A11400160EC02E948046011A80290AC
:1004A000001D1421FFF74FFE306C0394204330648D
:1004B000306C204017901798E248016816220A43D2
:1004C000E9218A430260E04C2068E0490140103194
:1004D00021602068DE4908400F994018206020689C
:1004E0000899884320602068402188432060216863
:1004F000802001432160D7490B4670332268009366
:100500001A406B02D218226003220F9292022368D3
:1005100093432360D04C22680A4022604F21E1625D
:100520000D99A1622163616929436161C743216813
:1005300039402160A168C94A0A40A260E1690820E7
:1005400001430190E161216A0E9A91432162216A7F
:100550006268BF4B1A40E3696260C14E334060334A
:10056000E3610D9BE363B24A11402162E169079A9E
:100570009143E16161687022914361600F210C91A8
:10058000090562688A436260A1683940A160C74377
:10059000E0693840E061B3486064A349486B284390
:1005A0004863486B284017900B9816901595149344
:1005B0000F99139112900998119017980A9802991F
:1005C0009D4A90477436A848016831400E9E7118C4
:1005D00038310160A549816021463C3141609A4A29
:1005E00010467C38059901600499016010680B9BE6
:1005F00018431060E06803990843E060E903606C09
:10060000059108436064606838406060206A304348
:100610002062106828431060206828432060680426
:10062000814AD16B0143D163D16B01401191119883
:10063000506B28435063506B2840179016950D9EC1
:10064000159614961396129307981190179811A95E
:1006500007910A9F3846784CA04716951596149630
:1006600013960B981290019811903E4638460799C0
:10067000A0477F4C2068C00754D120687D490140C5
:100680000C3121606068724908406060A068009980
:100690000840A060644D686D0007800F032806D0F5
:1006A000022809D001281DD1FFF7E2FD2DE0E86DF9
:1006B00080030599084028E02868099908422DD050
:1006C0006D4824E000100240002002408C80FF1F93
:1006D00002080020FFFFFF00FFF0FFFF10E000E036
:1006E000FFF90000FFF7C4FDA968AA68920A1C235D
:1006F000134062A2D2581F231A4089093C250D409D
:1007000066A149591940C840D040002806D0E121CF
:100710000A0280184902FFF7F9FCE060E06A0C99D0
:100720008843E062069A5007A1688143A1605006A1
:10073000A1688143A160109A50072168814321601C
:100740000920C002616881436160A0682A21884352
:10075000A060206810432060E0698002FCD5E06959
:100760004002F9D57069089C60407061099818389A
:10077000FFF76AFD7069604070611E2057490D46A1
:1007800088470C9C6002A8476004A8470D990E9802
:100790008142F2D010910027032F40D0002086B272
:1007A0000D2E2AD2C51910983018FF242146FFF7C4
:1007B000ADFCAB2906D3C8430F994843C1B284436B
:1007C000200214E0C8B2562809D35520C043401A6D
:1007D0000F9948438443C0B20004011908E0552032
:1007E000401A0F994843C1B20902844320044118BA
:1007F000A8B2FFF789FDF01CD1E7FFF79BFD14209D
:10080000FFF722FD002084B20D2C06D2C01980B261
:100810000021FFF779FDE01CF5E77F1CBCE710998C
:10082000491CB4E72D02000800100240FFFFFF0042
:10083000FFF0FFFF000800509301000808E400E00B
:1008400000E100E01808024080000240EFBFFFFF17
:10085000FFCFFFFF8FFCFFFF002C0140F8BFFEFF22
:100860008CFFFEFF002000028400024000000020F8
:1008700000440040F369FFEF0024F4000000000092
:100880000000000000000000000000000100000067
:10089000020000000300000004000000000000004F
:1008A0000000000000000000000000000000000048
:1008B0000000000000000000000000000100000037
:1008C0000200000003000000040000000600000019
:1008D000070000000800000009000000E502000811
:1008E00002E008C8121F08C1002AFAD170477047F9
:1008F000002001E001C1121F002AFBD17047000057
:10090000100900080000002040050000F008000861
:04000005080000B936
:00000001FF
